:0400000002002132A7
:03000B00020236B8
:0100130032BA
:03001B000200D709
:20007A0075230075303F75310675325B75334F75346675356D75367D75370775387F75396A
:04009A006F02001ED3
:03001E000202CF0C
:20009E00AF828F061FEE600F7D007E000DBD00010EED4E60ED80F522AF82100201228F27F1
:2000BE00D20022AF823002FD8F820200B6852882C203223003FD0200CBC0E0C0D030012071
:2000DE00D52C28752C03D52E09852A28C201D2038019E52AC313F52A308010432A80800BE5
:2000FE00208008D201752C04752E09D52B29752B03300023E52D700AC281852729752D09A8
:20011E008015D52D08D281C200D202800AE529C313F529A2D79281D0D0D0E03275C70075EE
:20013E00C50075C60075C38075C40022AE82AF8375C78375C5038EC48FC375C65A75C503BA
:20015E0075C6A50002013AAE82AF8375C78375C5018EC48FC375C65A75C50175C6A500AF05
:20017E00C2C00712013AD0078F8222AE82AF8375C78375C5028EC48FC3852FC275C65A7500
:20019E00C50275C6A50002013AE582FF13B392049291EFA2E1B3920492B6EFA2E2B39204B9
:2001BE0092B5EFA2E3B39204929722E582FF1392059290EFA2E1920592B4EFA2E2920592B5
:2001DE0095EFA2E392059293EFA2E492059292EFA2E5920592B7EFA2E692059296EF3392CC
:2001FE0005929422AF82D291D2B6D2B5D297C290C2B4C295C293C292C2B7C296C294EF1496
:20021E00F5F005F07401800225E0D5F0FBF5821201A7853A820201C9C022C0E0C0F0C08278
:20023E00C083C007C006C005C004C003C002C001C000C0D075D000E53B24FC4052E53B7505
:20025E00F003A49002657302027102028002028F02029EE5232430F9873A7582011202022D
:20027E008030E5242430F9873A7582021202028021E5252430F9873A75820312020280122F
:20029E00E5262430F9873A7582041202028003753BFF053BD0D0D000D001D002D003D004EA
:2002BE00D005D006D007D083D082D0F0D0E0D022327F00EF2423F98F057E008D828E83C0C5
:2002DE0007C006C005C001120165AC82D001D005D006D007A704BCFF107700752F008D8214
:2002FE008E83C007120189D0070FBF040040C47F00758902D28CD2A9758E40758B80758DA2
:20031E00FED2BBD28ED2ABC200C201D202C203752B00752C00D2AF3003FDEF24FB501D7F4D
:20033E0000C0077423C0E0740AC0E07480C0E012040F158115811581D00780DBEF243CF98E
:20035E00C007C0011200CBAE82D001D007A706BE0A02800FE7600C8706BE13028005870677
:20037E00BE7366BF044590000012014A7E00EE2423F9EE243CF8E624D0F78E047D00872F4B
:20039E008C828D83C006120189D0060EBE040040DD7430C0E0740AC0E07480C0E012040FE1
:2003BE001581158115817F000203357F00C0077423C0E0740AC0E07480C0E012040F1581BA
:0D03DE0015811581D0070203350F0203358C
:1D0A230057726F6E6720636F6465210A00436F6465207265636569766564210A00B6
:06005000E478FFF6D8FD84
:20002E007900E94400601B7A00900A4B780175A000E493F2A308B8000205A0D9F4DAF27523
:02004E00A0FF11
:200056007800E84400600A790175A000E4F309D8FC7800E84400600C7900900001E4F0A3A8
:04007600D8FCD9FADF
:2003EB00C0098581091200C1D0092285825085835185F052E4F54DF54EF54F8508539003B5
:20040B00EB0204E1C009858109E50924FBFF8F53E4F54DF54EF54FE50924FBF88650088623
:0D042B00510886529003EB1204E1D0092223
:20043800AF82C043C044C0451204458007C041C0428F8222158115811581054BE4B54B0257
:20045800054C22AF8274302FFF24C6500A74072FFF3006034307208F82020438E582FFC405
:20047800540FF582C00712045BD007740F5FF58202045B85820A85460B85470C85480D85A3
:20049800490EAA4A750F20EA2AFAE50E235401FF8A064EFAE50B250BF50BE50C33F50CE5DB
:2004B8000D33F50DE50E33F50EC3EA950A4008EAC3950AFA430B01D50FCD850B46850C4731
:2004D800850D48850E498A4A22858241858342854D43854E44854F45E4F54BF54CAD50AE71
:2004F80051AF528D828E838FF0120A03FC74012DF550E43EF5518F52ECFF70030209E4BF9C
:20051800250280030209DCC207C208C209C20AC20BC20CC20DC20E7554007555007CFFAA16
:2005380050AB51AE528A828B838EF0120A03FFA3AA82AB838A508B518E52BF25078F821200
:20055800043880998F5774D025575026E55724C64020BCFF12E55575F00AA4FD2F24D0F55D
:200578005570C2D20880BEEC75F00AA42F24D0FC80B3BF2E07BCFFAD7C0080A98F05BD61C0
:2005980000400CED248540075307DFD2068002C206BF2002806DBF2B028063BF2D0280595B
:2005B800BF42028063BF43028068BF4403020786BF460302079CBF480302053DBF490302B4
:2005D8000786BF4A0302053DBF4C028040BF4F0302078DBF500302071BBF5302805CBF5479
:2005F8000302053DBF5503020792BF5803020797BF5A0302053D0207A0D20702053DD2092F
:2006180002053DD20A02053DD20C02053DD20D02053D300C0CE55314FE8E538E0187078009
:2006380011E55324FEFE8E538E018705098706198D078F821204380207A9E55324FDFE8E04
:20065800538E01870309870509870619198B468D478E488B828D838EF0C0041209EBAD82AA
:20067800AE83D004BCFF028D0420072AC3ED95555024E555C39DF555AE558E031EEB6014BB
:20069800758220C006C005C004120438D004D005D00680E68E558C068546828547838548CB
:2006B800F0120A03FCFF602F8E041EC374808CF063F08095F050208F82C006C005120438F4
:2006D800D005D006AA46AB47AC480ABA00010B8A468B478C4880C12007030207A9C3ED95D9
:2006F8005540030207A9E555C39DF555AE558E041EEC70030207A7758220C006120438D0F7
:200718000680EBE55324FDFC8C538C01870209870309870419198A468B478C48AC48BC8007
:200738000040047F438014BC600040047F50800BBC400040047F4980027F588F82C0071202
:20075800043875823A120438758230120438758278120438D007BF4902800BBF5002800691
:200778008547821204748546821204748023D20B75540A801C755408801775540A80127581
:200798005410800DD20E80098F8212043880028E55300E5CE55324FCFE8E538E0187020931
:2007B80087030987040987061919198A468B478C488E4975464075470A754880854658852F
:2007D800475985485A74012558FAE43559FCAE5A8A468C478E48855882855983855AF012BE
:2007F8000A03FEFF70030204F58F8212043880CCE55470030204F5755615300C2DE5531482
:20081800FC8C538C01E7FA3395E0FBFCFE8A468B478C488E49200B66AA467B007C007E0097
:200838008A468B478C488E498054300D21E55324FCFE8E538E01870209870309870409871B
:20085800061919198A468B478C488E498030E55324FEFE8E538E01870409870619EE33957A
:20087800E0FBFA8C468E478B488A49200B10AA46AB477C007E008A468B478C488E49300B9F
:2008980022E54930E71BC3E49546FAE49547FBE49548FCE49549FE8A468B478C488E49803D
:2008B80002C20BD20FA9567E00754A00855482C006C00112048BD001D006200F0BE54AC4DD
:2008D800FCE7FB4CF7198002A74A0EB20FE54645474548454970D289568E05E555700375DC
:2008F8005501200824200721ED04FEAC55C3EE9C5015758220C006C005C004120438D004CC
:20091800D005D0061C80E68C55300B0E75822DC005120438D00515558023ED602030090E9B
:2009380075822BC005120438D0051555800F300A0C758220C005120438D0051555200722A4
:20095800AE558E041EC3ED9C502B3008047C3080027C208C82C006C005120438D005D0066D
:2009780080E0C3ED95555008E555C39DF555800775550080028E55A9568D068E051EED60E3
:2009980026B20F200F0A09E7C4540FFD8D4A80078705740F5DF54A854A82C006C001120414
:2009B8005BD001D00680D42007030204F5AE558E051EED70030204F5758220C0061204386A
:1309D800D00680EB8F821204380204F5854B82854C8322A9
:0B0A40003C4E4F20464C4F41543E00FE
:1809EB00AA82AB83120A036003A380F8C3E5829AF582E5839BF5832225
:0D00210075815A120A1FE582600302001E5D
:1C0A030020F71430F6148883A88220F507E6A88375830022E280F7E49322E02202
:040A1F0075820022BA
:00000001FF
